:020000040800F2
:100000000020002021030008150300081703000842
:1000100000000000000000000000000000000000E0
:1000200000000000000000000000000019030008AC
:1000300000000000000000001B0300081D03000872
:1000400071030008710300087103000871030008C0
:1000500071030008710300087103000871030008B0
:1000600071030008710300087103000871030008A0
:100070007103000871030008710300087103000890
:1000800071030008710300080000000071030008FC
:100090007103000871030008710300087103000870
:1000A0007103000871030008710300087103000860
:1000B0007103000800000000710300080000000048
:1000C00010B5064C2378002B07D1054B002B02D02E
:1000D000044800E000BF0123237010BD040000208D
:1000E00000000000BC030008044B10B5002B03D037
:1000F0000349044800E000BF10BDC04600000000F6
:1001000008000020BC030008094A5169C023DB0233
:100110000B4353619023DB055522DA601A68FF21F7
:100120008A431A60034B044A1A6000225A617047DE
:1001300000100240000400485555000082B0002322
:1001400000930AE0019B01330193019AFA239B007B
:100150009A42F7DB009B01330093009AFA239B003D
:100160009A4202DA00230193EFE702B070470000E1
:1001700010B5084B1B78084C6361FFF7DFFF074B96
:100180001B786361FFF7DAFF054B1B786361FFF7AC
:10019000D5FFEEE724000020000400480100002005
:1001A0000000002010B5114C01236361FFF7C6FF6A
:1001B00002236361FFF7C2FF04236361FFF7BEFF01
:1001C00008236361FFF7BAFF10236361FFF7B6FFEF
:1001D00020236361FFF7B2FF40236361FFF7AEFFA7
:1001E00080236361FFF7AAFFDDE7C04600040048F3
:1001F00010B5002400E00024044B5C61FFF79EFF73
:100200000134E4B2FF2CF7D1F5E7C0460004004802
:100210009023DB051B69DB070AD41D4B01221A70F2
:100220001C4A002313701C4A13701C4A1370704739
:100230009023DB051B699B070AD4154B01221A701A
:10024000144B1A70144B00221A70144B1A70EEE7FC
:100250009023DB051B695B070AD40D4B0121197044
:100260000C4B00221A700C4B19700C4B1A70DEE705
:100270009023DB051B691B07D9D4054B01221A709B
:10028000044B00211970044B1970044B1A70CEE70F
:100290002300002022000020210000202000002058
:1002A00010B5134B1B78012B0CD0124B1B78012B74
:1002B00018D0114B1B78012B16D0104B1B78012B3B
:1002C00014D010BD0B4B1B78002BEED10A4B1B78C2
:1002D000002BEAD1094B1B78002BE6D1084B0122F9
:1002E0005A61E2E7FFF744FFFFF75CFFFFF780FF8B
:1002F00023000020220000202100002020000020F8
:100300000004004810B5FFF7FFFEFFF781FFFFF77D
:10031000C7FFFAE7FEE7FEE7704770477047704790
:100320000D488546FFF7FBFF0C480D490D4A002399
:1003300002E0D458C4500433C4188C42F9D30A4A9A
:100340000A4C002301E013600432A242FBD300F008
:1003500011F8FFF7D7FFFEE7002000200000002083
:1003600004000020DC030008040000202800002016
:10037000FEE7000070B500260C4C0D4D641BA41068
:10038000A64209D1002600F019F80A4C0A4D641B58
:10039000A410A64205D170BDB300EB5898470136B2
:1003A000EEE7B300EB5898470136F2E7D4030008B4
:1003B000D4030008D8030008D4030008F8B5C046E9
:1003C000F8BC08BC9E467047F8B5C046F8BC08BCEF
:0403D0009E4670478E
:0403D400E900000834
:0403D800C100000858
:0403DC00AAFF000074
:0400000508000321CB
:00000001FF
